{
  "contractName": "Dex",
  "abi": [
    {
      "anonymous": false,
      "inputs": [
        {
          "indexed": true,
          "internalType": "address",
          "name": "previousOwner",
          "type": "address"
        },
        {
          "indexed": true,
          "internalType": "address",
          "name": "newOwner",
          "type": "address"
        }
      ],
      "name": "OwnershipTransferred",
      "type": "event"
    },
    {
      "inputs": [
        {
          "internalType": "bytes32",
          "name": "ticker",
          "type": "bytes32"
        },
        {
          "internalType": "address",
          "name": "tokenAddress",
          "type": "address"
        }
      ],
      "name": "addToken",
      "outputs": [],
      "stateMutability": "nonpayable",
      "type": "function"
    },
    {
      "inputs": [
        {
          "internalType": "address",
          "name": "",
          "type": "address"
        },
        {
          "internalType": "bytes32",
          "name": "",
          "type": "bytes32"
        }
      ],
      "name": "balances",
      "outputs": [
        {
          "internalType": "uint256",
          "name": "",
          "type": "uint256"
        }
      ],
      "stateMutability": "view",
      "type": "function"
    },
    {
      "inputs": [
        {
          "internalType": "uint256",
          "name": "amount",
          "type": "uint256"
        },
        {
          "internalType": "bytes32",
          "name": "ticker",
          "type": "bytes32"
        }
      ],
      "name": "deposit",
      "outputs": [],
      "stateMutability": "nonpayable",
      "type": "function"
    },
    {
      "inputs": [],
      "name": "depositEth",
      "outputs": [],
      "stateMutability": "payable",
      "type": "function"
    },
    {
      "inputs": [
        {
          "internalType": "bytes32",
          "name": "",
          "type": "bytes32"
        },
        {
          "internalType": "uint256",
          "name": "",
          "type": "uint256"
        },
        {
          "internalType": "uint256",
          "name": "",
          "type": "uint256"
        }
      ],
      "name": "orderBook",
      "outputs": [
        {
          "internalType": "uint256",
          "name": "id",
          "type": "uint256"
        },
        {
          "internalType": "address",
          "name": "trader",
          "type": "address"
        },
        {
          "internalType": "enum Dex.Side",
          "name": "side",
          "type": "uint8"
        },
        {
          "internalType": "uint256",
          "name": "amount",
          "type": "uint256"
        },
        {
          "internalType": "uint256",
          "name": "price",
          "type": "uint256"
        },
        {
          "internalType": "bytes32",
          "name": "ticker",
          "type": "bytes32"
        },
        {
          "internalType": "uint256",
          "name": "filled",
          "type": "uint256"
        }
      ],
      "stateMutability": "view",
      "type": "function"
    },
    {
      "inputs": [],
      "name": "owner",
      "outputs": [
        {
          "internalType": "address",
          "name": "",
          "type": "address"
        }
      ],
      "stateMutability": "view",
      "type": "function"
    },
    {
      "inputs": [],
      "name": "renounceOwnership",
      "outputs": [],
      "stateMutability": "nonpayable",
      "type": "function"
    },
    {
      "inputs": [
        {
          "internalType": "uint256",
          "name": "",
          "type": "uint256"
        }
      ],
      "name": "tokenList",
      "outputs": [
        {
          "internalType": "bytes32",
          "name": "",
          "type": "bytes32"
        }
      ],
      "stateMutability": "view",
      "type": "function"
    },
    {
      "inputs": [
        {
          "internalType": "bytes32",
          "name": "",
          "type": "bytes32"
        }
      ],
      "name": "tokenMapping",
      "outputs": [
        {
          "internalType": "bytes32",
          "name": "ticker",
          "type": "bytes32"
        },
        {
          "internalType": "address",
          "name": "tokenAddress",
          "type": "address"
        }
      ],
      "stateMutability": "view",
      "type": "function"
    },
    {
      "inputs": [
        {
          "internalType": "address",
          "name": "newOwner",
          "type": "address"
        }
      ],
      "name": "transferOwnership",
      "outputs": [],
      "stateMutability": "nonpayable",
      "type": "function"
    },
    {
      "inputs": [
        {
          "internalType": "uint256",
          "name": "amount",
          "type": "uint256"
        },
        {
          "internalType": "bytes32",
          "name": "ticker",
          "type": "bytes32"
        }
      ],
      "name": "withdraw",
      "outputs": [],
      "stateMutability": "nonpayable",
      "type": "function"
    },
    {
      "inputs": [
        {
          "internalType": "uint256",
          "name": "amount",
          "type": "uint256"
        }
      ],
      "name": "withdrawEth",
      "outputs": [],
      "stateMutability": "nonpayable",
      "type": "function"
    },
    {
      "inputs": [
        {
          "internalType": "bytes32",
          "name": "ticker",
          "type": "bytes32"
        },
        {
          "internalType": "enum Dex.Side",
          "name": "side",
          "type": "uint8"
        }
      ],
      "name": "getOrderBook",
      "outputs": [
        {
          "components": [
            {
              "internalType": "uint256",
              "name": "id",
              "type": "uint256"
            },
            {
              "internalType": "address",
              "name": "trader",
              "type": "address"
            },
            {
              "internalType": "enum Dex.Side",
              "name": "side",
              "type": "uint8"
            },
            {
              "internalType": "uint256",
              "name": "amount",
              "type": "uint256"
            },
            {
              "internalType": "uint256",
              "name": "price",
              "type": "uint256"
            },
            {
              "internalType": "bytes32",
              "name": "ticker",
              "type": "bytes32"
            },
            {
              "internalType": "uint256",
              "name": "filled",
              "type": "uint256"
            }
          ],
          "internalType": "struct Dex.Order[]",
          "name": "",
          "type": "tuple[]"
        }
      ],
      "stateMutability": "view",
      "type": "function"
    },
    {
      "inputs": [
        {
          "internalType": "enum Dex.Side",
          "name": "side",
          "type": "uint8"
        },
        {
          "internalType": "bytes32",
          "name": "ticker",
          "type": "bytes32"
        },
        {
          "internalType": "uint256",
          "name": "amount",
          "type": "uint256"
        },
        {
          "internalType": "uint256",
          "name": "price",
          "type": "uint256"
        }
      ],
      "name": "createLimitOrder",
      "outputs": [],
      "stateMutability": "nonpayable",
      "type": "function"
    },
    {
      "inputs": [
        {
          "internalType": "enum Dex.Side",
          "name": "side",
          "type": "uint8"
        },
        {
          "internalType": "bytes32",
          "name": "ticker",
          "type": "bytes32"
        },
        {
          "internalType": "uint256",
          "name": "amount",
          "type": "uint256"
        }
      ],
      "name": "createMarketOrder",
      "outputs": [],
      "stateMutability": "nonpayable",
      "type": "function"
    }
  ],
  "bytecode": "0x608060405260006004553480156200001657600080fd5b50620000376200002b6200003d60201b60201c565b6200004560201b60201c565b62000109565b600033905090565b60008060009054906101000a900473ffffffffffffffffffffffffffffffffffffffff169050816000806101000a81548173ffffffffffffffffffffffffffffffffffffffff021916908373ffffffffffffffffffffffffffffffffffffffff1602179055508173ffffffffffffffffffffffffffffffffffffffff168173ffffffffffffffffffffffffffffffffffffffff167f8be0079c531659141344cd1fd0a4f28419497f9722a3daafe3b4186f6b6457e060405160405180910390a35050565b61378f80620001196000396000f3fe6080604052600436106100e85760003560e01c80639776aacf1161008a578063ba58ea6811610059578063ba58ea68146102d8578063c311d04914610315578063c9630cb01461033e578063f2fde38b14610367576100e8565b80639776aacf1461022057806399ec2f1c146102495780639ead722214610272578063a8d2021a146102af576100e8565b8063667cb4ba116100c6578063667cb4ba146101775780636f3b62f9146101b5578063715018a6146101de5780638da5cb5b146101f5576100e8565b80630bb431b6146100ed5780631f14df6914610130578063439370b11461016d575b600080fd5b3480156100f957600080fd5b50610114600480360381019061010f9190612a94565b610390565b6040516101279796959493929190612bbd565b60405180910390f35b34801561013c57600080fd5b5061015760048036038101906101529190612c58565b610429565b6040516101649190612c98565b60405180910390f35b61017561044e565b005b34801561018357600080fd5b5061019e60048036038101906101999190612cb3565b610547565b6040516101ac929190612ce0565b60405180910390f35b3480156101c157600080fd5b506101dc60048036038101906101d79190612d2e565b61058b565b005b3480156101ea57600080fd5b506101f361103c565b005b34801561020157600080fd5b5061020a611050565b6040516102179190612d95565b60405180910390f35b34801561022c57600080fd5b5061024760048036038101906102429190612db0565b611079565b005b34801561025557600080fd5b50610270600480360381019061026b9190612df0565b611140565b005b34801561027e57600080fd5b5061029960048036038101906102949190612e43565b611fbb565b6040516102a69190612e70565b60405180910390f35b3480156102bb57600080fd5b506102d660048036038101906102d19190612e8b565b611fdf565b005b3480156102e457600080fd5b506102ff60048036038101906102fa9190612ecb565b61228a565b60405161030c9190613084565b60405180910390f35b34801561032157600080fd5b5061033c60048036038101906103379190612e43565b6123e3565b005b34801561034a57600080fd5b5061036560048036038101906103609190612e8b565b6125f9565b005b34801561037357600080fd5b5061038e600480360381019061038991906130a6565b612813565b005b600560205282600052604060002060205281600052604060002081815481106103b857600080fd5b906000526020600020906006020160009250925050508060000154908060010160009054906101000a900473ffffffffffffffffffffffffffffffffffffffff16908060010160149054906101000a900460ff16908060020154908060030154908060040154908060050154905087565b6003602052816000526040600020602052806000526040600020600091509150505481565b6104d134600360003373ffffffffffffffffffffffffffffffffffffffff1673ffffffffffffffffffffffffffffffffffffffff16815260200190815260200160002060007f455448000000000000000000000000000000000000000000000000000000000081526020019081526020016000205461289790919063ffffffff16565b600360003373ffffffffffffffffffffffffffffffffffffffff1673ffffffffffffffffffffffffffffffffffffffff16815260200190815260200160002060007f4554480000000000000000000000000000000000000000000000000000000000815260200190815260200160002081905550565b60016020528060005260406000206000915090508060000154908060010160009054906101000a900473ffffffffffffffffffffffffffffffffffffffff16905082565b6000600181111561059f5761059e612b37565b5b8460018111156105b2576105b1612b37565b5b1415610682576105cb81836128ad90919063ffffffff16565b600360003373ffffffffffffffffffffffffffffffffffffffff1673ffffffffffffffffffffffffffffffffffffffff16815260200190815260200160002060007f4554480000000000000000000000000000000000000000000000000000000000815260200190815260200160002054101561067d576040517f08c379a000000000000000000000000000000000000000000000000000000000815260040161067490613130565b60405180910390fd5b610743565b60018081111561069557610694612b37565b5b8460018111156106a8576106a7612b37565b5b14156107425781600360003373ffffffffffffffffffffffffffffffffffffffff1673ffffffffffffffffffffffffffffffffffffffff1681526020019081526020016000206000858152602001908152602001600020541015610741576040517f08c379a00000000000000000000000000000000000000000000000000000000081526004016107389061319c565b60405180910390fd5b5b5b600060056000858152602001908152602001600020600086600181111561076d5761076c612b37565b5b81526020019081526020016000209050806040518060e0016040528060045481526020013373ffffffffffffffffffffffffffffffffffffffff1681526020018760018111156107c0576107bf612b37565b5b8152602001858152602001848152602001868152602001600081525090806001815401808255809150506001900390600052602060002090600602016000909190919091506000820151816000015560208201518160010160006101000a81548173ffffffffffffffffffffffffffffffffffffffff021916908373ffffffffffffffffffffffffffffffffffffffff16021790555060408201518160010160146101000a81548160ff0219169083600181111561088157610880612b37565b5b0217905550606082015181600201556080820151816003015560a0820151816004015560c0820151816005015550506000808280549050116108c45760006108d6565b600182805490506108d591906131eb565b5b9050600060018111156108ec576108eb612b37565b5b8660018111156108ff576108fe612b37565b5b1415610c7c575b6000811115610c77578160018261091d91906131eb565b8154811061092e5761092d61321f565b5b9060005260206000209060060201600301548282815481106109535761095261321f565b5b9060005260206000209060060201600301541161096f57610c77565b60008282815481106109845761098361321f565b5b90600052602060002090600602016040518060e0016040529081600082015481526020016001820160009054906101000a900473ffffffffffffffffffffffffffffffffffffffff1673ffffffffffffffffffffffffffffffffffffffff1673ffffffffffffffffffffffffffffffffffffffff1681526020016001820160149054906101000a900460ff166001811115610a2257610a21612b37565b5b6001811115610a3457610a33612b37565b5b8152602001600282015481526020016003820154815260200160048201548152602001600582015481525050905082600183610a7091906131eb565b81548110610a8157610a8061321f565b5b9060005260206000209060060201838381548110610aa257610aa161321f565b5b9060005260206000209060060201600082015481600001556001820160009054906101000a900473ffffffffffffffffffffffffffffffffffffffff168160010160006101000a81548173ffffffffffffffffffffffffffffffffffffffff021916908373ffffffffffffffffffffffffffffffffffffffff1602179055506001820160149054906101000a900460ff168160010160146101000a81548160ff02191690836001811115610b5957610b58612b37565b5b0217905550600282015481600201556003820154816003015560048201548160040155600582015481600501559050508083600184610b9891906131eb565b81548110610ba957610ba861321f565b5b90600052602060002090600602016000820151816000015560208201518160010160006101000a81548173ffffffffffffffffffffffffffffffffffffffff021916908373ffffffffffffffffffffffffffffffffffffffff16021790555060408201518160010160146101000a81548160ff02191690836001811115610c3357610c32612b37565b5b0217905550606082015181600201556080820151816003015560a0820151816004015560c082015181600501559050508180610c6e9061324e565b92505050610906565b61101c565b600180811115610c8f57610c8e612b37565b5b866001811115610ca257610ca1612b37565b5b141561101b575b600081111561101a5781600182610cc091906131eb565b81548110610cd157610cd061321f565b5b906000526020600020906006020160030154828281548110610cf657610cf561321f565b5b90600052602060002090600602016003015410610d125761101a565b6000828281548110610d2757610d2661321f565b5b90600052602060002090600602016040518060e0016040529081600082015481526020016001820160009054906101000a900473ffffffffffffffffffffffffffffffffffffffff1673ffffffffffffffffffffffffffffffffffffffff1673ffffffffffffffffffffffffffffffffffffffff1681526020016001820160149054906101000a900460ff166001811115610dc557610dc4612b37565b5b6001811115610dd757610dd6612b37565b5b8152602001600282015481526020016003820154815260200160048201548152602001600582015481525050905082600183610e1391906131eb565b81548110610e2457610e2361321f565b5b9060005260206000209060060201838381548110610e4557610e4461321f565b5b9060005260206000209060060201600082015481600001556001820160009054906101000a900473ffffffffffffffffffffffffffffffffffffffff168160010160006101000a81548173ffffffffffffffffffffffffffffffffffffffff021916908373ffffffffffffffffffffffffffffffffffffffff1602179055506001820160149054906101000a900460ff168160010160146101000a81548160ff02191690836001811115610efc57610efb612b37565b5b0217905550600282015481600201556003820154816003015560048201548160040155600582015481600501559050508083600184610f3b91906131eb565b81548110610f4c57610f4b61321f565b5b90600052602060002090600602016000820151816000015560208201518160010160006101000a81548173ffffffffffffffffffffffffffffffffffffffff021916908373ffffffffffffffffffffffffffffffffffffffff16021790555060408201518160010160146101000a81548160ff02191690836001811115610fd657610fd5612b37565b5b0217905550606082015181600201556080820151816003015560a0820151816004015560c0820151816005015590505081806110119061324e565b92505050610ca9565b5b5b6004600081548092919061102f90613278565b9190505550505050505050565b6110446128c3565b61104e6000612941565b565b60008060009054906101000a900473ffffffffffffffffffffffffffffffffffffffff16905090565b6110816128c3565b60405180604001604052808381526020018273ffffffffffffffffffffffffffffffffffffffff16815250600160008481526020019081526020016000206000820151816000015560208201518160010160006101000a81548173ffffffffffffffffffffffffffffffffffffffff021916908373ffffffffffffffffffffffffffffffffffffffff16021790555090505060028290806001815401808255809150506001900390600052602060002001600090919091909150555050565b600080600181111561115557611154612b37565b5b84600181111561116857611167612b37565b5b1415611177576001905061120f565b81600360003373ffffffffffffffffffffffffffffffffffffffff1673ffffffffffffffffffffffffffffffffffffffff168152602001908152602001600020600085815260200190815260200160002054101561120a576040517f08c379a00000000000000000000000000000000000000000000000000000000081526004016112019061330d565b60405180910390fd5b600090505b60008290506000806000600560008881526020019081526020016000206000868152602001908152602001600020905060005b818054905081108015611256575060008514155b15611d89578482828154811061126f5761126e61321f565b5b906000526020600020906006020160020154111561132b576112be8583838154811061129e5761129d61321f565b5b906000526020600020906006020160020154612a0590919063ffffffff16565b8282815481106112d1576112d061321f565b5b90600052602060002090600602016002018190555061131d8282815481106112fc576112fb61321f565b5b906000526020600020906006020160030154866128ad90919063ffffffff16565b9350849250600094506113ef565b6113628282815481106113415761134061321f565b5b90600052602060002090600602016002015486612a0590919063ffffffff16565b94508181815481106113775761137661321f565b5b90600052602060002090600602016002015492506113c28282815481106113a1576113a061321f565b5b906000526020600020906006020160030154846128ad90919063ffffffff16565b935060008282815481106113d9576113d861321f565b5b9060005260206000209060060201600201819055505b60018081111561140257611401612b37565b5b89600181111561141557611414612b37565b5b141561188c5761149e84600360003373ffffffffffffffffffffffffffffffffffffffff1673ffffffffffffffffffffffffffffffffffffffff16815260200190815260200160002060007f455448000000000000000000000000000000000000000000000000000000000081526020019081526020016000205461289790919063ffffffff16565b600360003373ffffffffffffffffffffffffffffffffffffffff1673ffffffffffffffffffffffffffffffffffffffff16815260200190815260200160002060007f45544800000000000000000000000000000000000000000000000000000000008152602001908152602001600020819055506115d9846003600085858154811061152d5761152c61321f565b5b906000526020600020906006020160010160009054906101000a900473ffffffffffffffffffffffffffffffffffffffff1673ffffffffffffffffffffffffffffffffffffffff1673ffffffffffffffffffffffffffffffffffffffff16815260200190815260200160002060007f4554480000000000000000000000000000000000000000000000000000000000815260200190815260200160002054612a0590919063ffffffff16565b600360008484815481106115f0576115ef61321f565b5b906000526020600020906006020160010160009054906101000a900473ffffffffffffffffffffffffffffffffffffffff1673ffffffffffffffffffffffffffffffffffffffff1673ffffffffffffffffffffffffffffffffffffffff16815260200190815260200160002060007f455448000000000000000000000000000000000000000000000000000000000081526020019081526020016000208190555061173883600360008585815481106116ac576116ab61321f565b5b906000526020600020906006020160010160009054906101000a900473ffffffffffffffffffffffffffffffffffffffff1673ffffffffffffffffffffffffffffffffffffffff1673ffffffffffffffffffffffffffffffffffffffff16815260200190815260200160002060008b81526020019081526020016000205461289790919063ffffffff16565b6003600084848154811061174f5761174e61321f565b5b906000526020600020906006020160010160009054906101000a900473ffffffffffffffffffffffffffffffffffffffff1673ffffffffffffffffffffffffffffffffffffffff1673ffffffffffffffffffffffffffffffffffffffff16815260200190815260200160002060008a81526020019081526020016000208190555061183383600360003373ffffffffffffffffffffffffffffffffffffffff1673ffffffffffffffffffffffffffffffffffffffff16815260200190815260200160002060008b815260200190815260200160002054612a0590919063ffffffff16565b600360003373ffffffffffffffffffffffffffffffffffffffff1673ffffffffffffffffffffffffffffffffffffffff16815260200190815260200160002060008a815260200190815260200160002081905550611d76565b83600360003373ffffffffffffffffffffffffffffffffffffffff1673ffffffffffffffffffffffffffffffffffffffff16815260200190815260200160002060007f4554480000000000000000000000000000000000000000000000000000000000815260200190815260200160002054101561190957600080fd5b61198c84600360003373ffffffffffffffffffffffffffffffffffffffff1673ffffffffffffffffffffffffffffffffffffffff16815260200190815260200160002060007f4554480000000000000000000000000000000000000000000000000000000000815260200190815260200160002054612a0590919063ffffffff16565b600360003373ffffffffffffffffffffffffffffffffffffffff1673ffffffffffffffffffffffffffffffffffffffff16815260200190815260200160002060007f4554480000000000000000000000000000000000000000000000000000000000815260200190815260200160002081905550611ac78460036000858581548110611a1b57611a1a61321f565b5b906000526020600020906006020160010160009054906101000a900473ffffffffffffffffffffffffffffffffffffffff1673ffffffffffffffffffffffffffffffffffffffff1673ffffffffffffffffffffffffffffffffffffffff16815260200190815260200160002060007f455448000000000000000000000000000000000000000000000000000000000081526020019081526020016000205461289790919063ffffffff16565b60036000848481548110611ade57611add61321f565b5b906000526020600020906006020160010160009054906101000a900473ffffffffffffffffffffffffffffffffffffffff1673ffffffffffffffffffffffffffffffffffffffff1673ffffffffffffffffffffffffffffffffffffffff16815260200190815260200160002060007f4554480000000000000000000000000000000000000000000000000000000000815260200190815260200160002081905550611c268360036000858581548110611b9a57611b9961321f565b5b906000526020600020906006020160010160009054906101000a900473ffffffffffffffffffffffffffffffffffffffff1673ffffffffffffffffffffffffffffffffffffffff1673ffffffffffffffffffffffffffffffffffffffff16815260200190815260200160002060008b815260200190815260200160002054612a0590919063ffffffff16565b60036000848481548110611c3d57611c3c61321f565b5b906000526020600020906006020160010160009054906101000a900473ffffffffffffffffffffffffffffffffffffffff1673ffffffffffffffffffffffffffffffffffffffff1673ffffffffffffffffffffffffffffffffffffffff16815260200190815260200160002060008a815260200190815260200160002081905550611d2183600360003373ffffffffffffffffffffffffffffffffffffffff1673ffffffffffffffffffffffffffffffffffffffff16815260200190815260200160002060008b81526020019081526020016000205461289790919063ffffffff16565b600360003373ffffffffffffffffffffffffffffffffffffffff1673ffffffffffffffffffffffffffffffffffffffff16815260200190815260200160002060008a8152602001908152602001600020819055505b8080611d8190613278565b915050611242565b505b60008180549050118015611dc45750600081600081548110611db057611daf61321f565b5b906000526020600020906006020160020154145b15611fb15760005b60018280549050611ddd91906131eb565b811015611f1e5781600182611df2919061332d565b81548110611e0357611e0261321f565b5b9060005260206000209060060201828281548110611e2457611e2361321f565b5b9060005260206000209060060201600082015481600001556001820160009054906101000a900473ffffffffffffffffffffffffffffffffffffffff168160010160006101000a81548173ffffffffffffffffffffffffffffffffffffffff021916908373ffffffffffffffffffffffffffffffffffffffff1602179055506001820160149054906101000a900460ff168160010160146101000a81548160ff02191690836001811115611edb57611eda612b37565b5b0217905550600282015481600201556003820154816003015560048201548160040155600582015481600501559050508080611f1690613278565b915050611dcc565b5080805480611f3057611f2f613383565b5b60019003818190600052602060002090600602016000808201600090556001820160006101000a81549073ffffffffffffffffffffffffffffffffffffffff02191690556001820160146101000a81549060ff0219169055600282016000905560038201600090556004820160009055600582016000905550509055611d8b565b5050505050505050565b60028181548110611fcb57600080fd5b906000526020600020016000915090505481565b80600073ffffffffffffffffffffffffffffffffffffffff166001600083815260200190815260200160002060010160009054906101000a900473ffffffffffffffffffffffffffffffffffffffff1673ffffffffffffffffffffffffffffffffffffffff161415612086576040517f08c379a000000000000000000000000000000000000000000000000000000000815260040161207d906133fe565b60405180910390fd5b82600360003373ffffffffffffffffffffffffffffffffffffffff1673ffffffffffffffffffffffffffffffffffffffff1681526020019081526020016000206000848152602001908152602001600020541015612119576040517f08c379a00000000000000000000000000000000000000000000000000000000081526004016121109061346a565b60405180910390fd5b6001600083815260200190815260200160002060010160009054906101000a900473ffffffffffffffffffffffffffffffffffffffff1673ffffffffffffffffffffffffffffffffffffffff1663a9059cbb33856040518363ffffffff1660e01b815260040161218a92919061348a565b6020604051808303816000875af11580156121a9573d6000803e3d6000fd5b505050506040513d601f19601f820116820180604052508101906121cd91906134eb565b5061223183600360003373ffffffffffffffffffffffffffffffffffffffff1673ffffffffffffffffffffffffffffffffffffffff168152602001908152602001600020600085815260200190815260200160002054612a0590919063ffffffff16565b600360003373ffffffffffffffffffffffffffffffffffffffff1673ffffffffffffffffffffffffffffffffffffffff168152602001908152602001600020600084815260200190815260200160002081905550505050565b60606005600084815260200190815260200160002060008360018111156122b4576122b3612b37565b5b8152602001908152602001600020805480602002602001604051908101604052809291908181526020016000905b828210156123d757838290600052602060002090600602016040518060e0016040529081600082015481526020016001820160009054906101000a900473ffffffffffffffffffffffffffffffffffffffff1673ffffffffffffffffffffffffffffffffffffffff1673ffffffffffffffffffffffffffffffffffffffff1681526020016001820160149054906101000a900460ff16600181111561238a57612389612b37565b5b600181111561239c5761239b612b37565b5b8152602001600282015481526020016003820154815260200160048201548152602001600582015481525050815260200190600101906122e2565b50505050905092915050565b80600360003373ffffffffffffffffffffffffffffffffffffffff1673ffffffffffffffffffffffffffffffffffffffff16815260200190815260200160002060007f45544800000000000000000000000000000000000000000000000000000000008152602001908152602001600020541015612496576040517f08c379a000000000000000000000000000000000000000000000000000000000815260040161248d90613564565b60405180910390fd5b61251981600360003373ffffffffffffffffffffffffffffffffffffffff1673ffffffffffffffffffffffffffffffffffffffff16815260200190815260200160002060007f4554480000000000000000000000000000000000000000000000000000000000815260200190815260200160002054612a0590919063ffffffff16565b600360003373ffffffffffffffffffffffffffffffffffffffff1673ffffffffffffffffffffffffffffffffffffffff16815260200190815260200160002060007f45544800000000000000000000000000000000000000000000000000000000008152602001908152602001600020819055503373ffffffffffffffffffffffffffffffffffffffff16816040516125b1906135b5565b60006040518083038185875af1925050503d80600081146125ee576040519150601f19603f3d011682016040523d82523d6000602084013e6125f3565b606091505b50505050565b80600073ffffffffffffffffffffffffffffffffffffffff166001600083815260200190815260200160002060010160009054906101000a900473ffffffffffffffffffffffffffffffffffffffff1673ffffffffffffffffffffffffffffffffffffffff1614156126a0576040517f08c379a0000000000000000000000000000000000000000000000000000000008152600401612697906133fe565b60405180910390fd5b6001600083815260200190815260200160002060010160009054906101000a900473ffffffffffffffffffffffffffffffffffffffff1673ffffffffffffffffffffffffffffffffffffffff166323b872dd3330866040518463ffffffff1660e01b8152600401612713939291906135ca565b6020604051808303816000875af1158015612732573d6000803e3d6000fd5b505050506040513d601f19601f8201168201806040525081019061275691906134eb565b506127ba83600360003373ffffffffffffffffffffffffffffffffffffffff1673ffffffffffffffffffffffffffffffffffffffff16815260200190815260200160002060008581526020019081526020016000205461289790919063ffffffff16565b600360003373ffffffffffffffffffffffffffffffffffffffff1673ffffffffffffffffffffffffffffffffffffffff168152602001908152602001600020600084815260200190815260200160002081905550505050565b61281b6128c3565b600073ffffffffffffffffffffffffffffffffffffffff168173ffffffffffffffffffffffffffffffffffffffff16141561288b576040517f08c379a000000000000000000000000000000000000000000000000000000000815260040161288290613673565b60405180910390fd5b61289481612941565b50565b600081836128a5919061332d565b905092915050565b600081836128bb9190613693565b905092915050565b6128cb612a1b565b73ffffffffffffffffffffffffffffffffffffffff166128e9611050565b73ffffffffffffffffffffffffffffffffffffffff161461293f576040517f08c379a000000000000000000000000000000000000000000000000000000000815260040161293690613739565b60405180910390fd5b565b60008060009054906101000a900473ffffffffffffffffffffffffffffffffffffffff169050816000806101000a81548173ffffffffffffffffffffffffffffffffffffffff021916908373ffffffffffffffffffffffffffffffffffffffff1602179055508173ffffffffffffffffffffffffffffffffffffffff168173ffffffffffffffffffffffffffffffffffffffff167f8be0079c531659141344cd1fd0a4f28419497f9722a3daafe3b4186f6b6457e060405160405180910390a35050565b60008183612a1391906131eb565b905092915050565b600033905090565b600080fd5b6000819050919050565b612a3b81612a28565b8114612a4657600080fd5b50565b600081359050612a5881612a32565b92915050565b6000819050919050565b612a7181612a5e565b8114612a7c57600080fd5b50565b600081359050612a8e81612a68565b92915050565b600080600060608486031215612aad57612aac612a23565b5b6000612abb86828701612a49565b9350506020612acc86828701612a7f565b9250506040612add86828701612a7f565b9150509250925092565b612af081612a5e565b82525050565b600073ffffffffffffffffffffffffffffffffffffffff82169050919050565b6000612b2182612af6565b9050919050565b612b3181612b16565b82525050565b7f4e487b7100000000000000000000000000000000000000000000000000000000600052602160045260246000fd5b60028110612b7757612b76612b37565b5b50565b6000819050612b8882612b66565b919050565b6000612b9882612b7a565b9050919050565b612ba881612b8d565b82525050565b612bb781612a28565b82525050565b600060e082019050612bd2600083018a612ae7565b612bdf6020830189612b28565b612bec6040830188612b9f565b612bf96060830187612ae7565b612c066080830186612ae7565b612c1360a0830185612bae565b612c2060c0830184612ae7565b98975050505050505050565b612c3581612b16565b8114612c4057600080fd5b50565b600081359050612c5281612c2c565b92915050565b60008060408385031215612c6f57612c6e612a23565b5b6000612c7d85828601612c43565b9250506020612c8e85828601612a49565b9150509250929050565b6000602082019050612cad6000830184612ae7565b92915050565b600060208284031215612cc957612cc8612a23565b5b6000612cd784828501612a49565b91505092915050565b6000604082019050612cf56000830185612bae565b612d026020830184612b28565b9392505050565b60028110612d1657600080fd5b50565b600081359050612d2881612d09565b92915050565b60008060008060808587031215612d4857612d47612a23565b5b6000612d5687828801612d19565b9450506020612d6787828801612a49565b9350506040612d7887828801612a7f565b9250506060612d8987828801612a7f565b91505092959194509250565b6000602082019050612daa6000830184612b28565b92915050565b60008060408385031215612dc757612dc6612a23565b5b6000612dd585828601612a49565b9250506020612de685828601612c43565b9150509250929050565b600080600060608486031215612e0957612e08612a23565b5b6000612e1786828701612d19565b9350506020612e2886828701612a49565b9250506040612e3986828701612a7f565b9150509250925092565b600060208284031215612e5957612e58612a23565b5b6000612e6784828501612a7f565b91505092915050565b6000602082019050612e856000830184612bae565b92915050565b60008060408385031215612ea257612ea1612a23565b5b6000612eb085828601612a7f565b9250506020612ec185828601612a49565b9150509250929050565b60008060408385031215612ee257612ee1612a23565b5b6000612ef085828601612a49565b9250506020612f0185828601612d19565b9150509250929050565b600081519050919050565b600082825260208201905092915050565b6000819050602082019050919050565b612f4081612a5e565b82525050565b612f4f81612b16565b82525050565b612f5e81612b8d565b82525050565b612f6d81612a28565b82525050565b60e082016000820151612f896000850182612f37565b506020820151612f9c6020850182612f46565b506040820151612faf6040850182612f55565b506060820151612fc26060850182612f37565b506080820151612fd56080850182612f37565b5060a0820151612fe860a0850182612f64565b5060c0820151612ffb60c0850182612f37565b50505050565b600061300d8383612f73565b60e08301905092915050565b6000602082019050919050565b600061303182612f0b565b61303b8185612f16565b935061304683612f27565b8060005b8381101561307757815161305e8882613001565b975061306983613019565b92505060018101905061304a565b5085935050505092915050565b6000602082019050818103600083015261309e8184613026565b905092915050565b6000602082840312156130bc576130bb612a23565b5b60006130ca84828501612c43565b91505092915050565b600082825260208201905092915050565b7f45544820696e73756666696369656e7400000000000000000000000000000000600082015250565b600061311a6010836130d3565b9150613125826130e4565b602082019050919050565b600060208201905081810360008301526131498161310d565b9050919050565b7f746f6b656e7320696e73756666696369656e7400000000000000000000000000600082015250565b60006131866013836130d3565b915061319182613150565b602082019050919050565b600060208201905081810360008301526131b581613179565b9050919050565b7f4e487b7100000000000000000000000000000000000000000000000000000000600052601160045260246000fd5b60006131f682612a5e565b915061320183612a5e565b925082821015613214576132136131bc565b5b828203905092915050565b7f4e487b7100000000000000000000000000000000000000000000000000000000600052603260045260246000fd5b600061325982612a5e565b9150600082141561326d5761326c6131bc565b5b600182039050919050565b600061328382612a5e565b91507fffffffffffffffffffffffffffffffffffffffffffffffffffffffffffffffff8214156132b6576132b56131bc565b5b600182019050919050565b7f496e73756666696369656e7420746f6b656e0000000000000000000000000000600082015250565b60006132f76012836130d3565b9150613302826132c1565b602082019050919050565b60006020820190508181036000830152613326816132ea565b9050919050565b600061333882612a5e565b915061334383612a5e565b9250827fffffffffffffffffffffffffffffffffffffffffffffffffffffffffffffffff03821115613378576133776131bc565b5b828201905092915050565b7f4e487b7100000000000000000000000000000000000000000000000000000000600052603160045260246000fd5b7f6164647265737320646f6573206e6f7420657869737400000000000000000000600082015250565b60006133e86016836130d3565b91506133f3826133b2565b602082019050919050565b60006020820190508181036000830152613417816133db565b9050919050565b7f62616c616e6365206e6f742073756666696369656e7421000000000000000000600082015250565b60006134546017836130d3565b915061345f8261341e565b602082019050919050565b6000602082019050818103600083015261348381613447565b9050919050565b600060408201905061349f6000830185612b28565b6134ac6020830184612ae7565b9392505050565b60008115159050919050565b6134c8816134b3565b81146134d357600080fd5b50565b6000815190506134e5816134bf565b92915050565b60006020828403121561350157613500612a23565b5b600061350f848285016134d6565b91505092915050565b7f696e73756666696369656e74204554482062616c616e63650000000000000000600082015250565b600061354e6018836130d3565b915061355982613518565b602082019050919050565b6000602082019050818103600083015261357d81613541565b9050919050565b600081905092915050565b50565b600061359f600083613584565b91506135aa8261358f565b600082019050919050565b60006135c082613592565b9150819050919050565b60006060820190506135df6000830186612b28565b6135ec6020830185612b28565b6135f96040830184612ae7565b949350505050565b7f4f776e61626c653a206e6577206f776e657220697320746865207a65726f206160008201527f6464726573730000000000000000000000000000000000000000000000000000602082015250565b600061365d6026836130d3565b915061366882613601565b604082019050919050565b6000602082019050818103600083015261368c81613650565b9050919050565b600061369e82612a5e565b91506136a983612a5e565b9250817fffffffffffffffffffffffffffffffffffffffffffffffffffffffffffffffff04831182151516156136e2576136e16131bc565b5b828202905092915050565b7f4f776e61626c653a2063616c6c6572206973206e6f7420746865206f776e6572600082015250565b60006137236020836130d3565b915061372e826136ed565b602082019050919050565b6000602082019050818103600083015261375281613716565b905091905056fea2646970667358221220ded24b0adcab36ea9817f4b97fc4b16e8a28e32bee1bd6289dfd0aeb4e933a9464736f6c634300080b0033",
  "immutableReferences": {},
  "source": "// SPDX-License-Identifier: MIT\r\npragma solidity >=0.6.0 <0.9.0;\r\npragma experimental ABIEncoderV2;\r\n\r\nimport \"./wallet.sol\";\r\ncontract Dex is Wallet{\r\nusing SafeMath for uint256;\r\n    enum Side {\r\n        BUY,\r\n        SELL\r\n    }\r\n\r\n    struct Order{\r\n        uint id;\r\n        address trader;\r\n        Side side;\r\n        uint amount;\r\n        uint price;\r\n        bytes32 ticker;\r\n        uint filled;\r\n    }\r\n    uint nextOrderId=0;\r\n    mapping(bytes32=>mapping(uint=>Order[])) public orderBook;\r\n    function getOrderBook(bytes32 ticker, Side side) view public returns(Order[] memory){\r\n        return orderBook[ticker][uint(side)];\r\n    }\r\n    \r\n    function createLimitOrder(Side side,bytes32 ticker,uint amount,uint price) public{\r\n        if(side==Side.BUY){\r\n            require(balances[msg.sender][\"ETH\"]>=amount.mul(price),\"ETH insufficient\");\r\n        }\r\n        else if(side==Side.SELL){\r\n            require(balances[msg.sender][ticker]>=amount,\"tokens insufficient\");\r\n        }\r\n        Order[] storage orders=orderBook[ticker][uint(side)];\r\n        orders.push(\r\n            Order(nextOrderId,msg.sender,side,amount,price,ticker,0)\r\n        );\r\n        //highest to lowest\r\n        uint i= orders.length>0?orders.length-1:0;\r\n        if(side==Side.BUY){\r\n            while( i>0){\r\n                if(orders[i].price<=orders[i-1].price){\r\n                    break;\r\n                }\r\n                Order memory tempOrder=orders[i];\r\n                orders[i]=orders[i-1];\r\n                orders[i-1]=tempOrder;\r\n                i--;\r\n            }\r\n        }\r\n        else if (side==Side.SELL){\r\n            while( i>0){\r\n                if(orders[i].price>=orders[i-1].price){\r\n                    break;\r\n                }\r\n                Order memory tempOrder=orders[i];\r\n                orders[i]=orders[i-1];\r\n                orders[i-1]=tempOrder;\r\n                i--;\r\n            }\r\n        }\r\n        nextOrderId++;\r\n    }\r\n    function createMarketOrder(Side side,bytes32 ticker,uint amount) public{\r\n    uint orderside;\r\n        if(side==Side.BUY){\r\n            orderside=1;\r\n        }\r\n        else{\r\n            require(balances[msg.sender][ticker]>=amount,\"Insufficient token\");\r\n            orderside=0;\r\n        }\r\n        uint amtTemp=amount;\r\n        uint costEth;\r\n        uint token;\r\n        Order[] storage orders=orderBook[ticker][orderside];\r\n        for(uint i=0;i<orders.length && amtTemp!=0 ;i++){\r\n            \r\n            if(orders[i].amount > amtTemp){\r\n                orders[i].amount=orders[i].amount.sub(amtTemp);\r\n                costEth=amtTemp.mul(orders[i].price);\r\n                token=amtTemp;\r\n                amtTemp=0;\r\n\r\n            }\r\n            else{\r\n                amtTemp=amtTemp.sub(orders[i].amount);\r\n                token=orders[i].amount;\r\n                costEth=token.mul(orders[i].price);\r\n                orders[i].amount=0;                \r\n            }\r\n            if(side==Side.SELL){\r\n                balances[msg.sender][\"ETH\"]=balances[msg.sender][\"ETH\"].add(costEth);\r\n                balances[orders[i].trader][\"ETH\"]=balances[orders[i].trader][\"ETH\"].sub(costEth);\r\n\r\n                balances[orders[i].trader][ticker]=balances[orders[i].trader][ticker].add(token);\r\n                balances[msg.sender][ticker]=balances[msg.sender][ticker].sub(token);\r\n            }\r\n            else{\r\n                require(balances[msg.sender][\"ETH\"]>=costEth);\r\n                balances[msg.sender][\"ETH\"]=balances[msg.sender][\"ETH\"].sub(costEth);\r\n                balances[orders[i].trader][\"ETH\"]=balances[orders[i].trader][\"ETH\"].add(costEth);\r\n\r\n                balances[orders[i].trader][ticker]=balances[orders[i].trader][ticker].sub(token);\r\n                balances[msg.sender][ticker]=balances[msg.sender][ticker].add(token);      \r\n            \r\n            }\r\n        }\r\n        while ( orders.length>0 && orders[0].amount==0){\r\n            for(uint j=0;j<orders.length-1;j++){\r\n                orders[j]=orders[j+1];\r\n            }\r\n            orders.pop();\r\n        }\r\n    }       \r\n}",
  "sourcePath": "C:\\Users\\USER\\Desktop\\Dex\\contracts\\dex.sol",
  "compiler": {
    "name": "solc",
    "version": "0.8.11+commit.d7f03943.Emscripten.clang"
  },
  "schemaVersion": "3.4.4",
  "updatedAt": "2023-07-11T13:39:06.507Z",
  "devdoc": {
    "kind": "dev",
    "methods": {
      "owner()": {
        "details": "Returns the address of the current owner."
      },
      "renounceOwnership()": {
        "details": "Leaves the contract without owner. It will not be possible to call `onlyOwner` functions anymore. Can only be called by the current owner. NOTE: Renouncing ownership will leave the contract without an owner, thereby removing any functionality that is only available to the owner."
      },
      "transferOwnership(address)": {
        "details": "Transfers ownership of the contract to a new account (`newOwner`). Can only be called by the current owner."
      }
    },
    "version": 1
  },
  "userdoc": {
    "kind": "user",
    "methods": {},
    "version": 1
  }
}